:0600000000F000EF04F027
:100600000048656C6C6F20576F726C640000FFFFD0
:10061000000E9CEC03F0140E046E7D0EFFFFE82E1E
:10062000FDD7042EFBD700D0030EEDEC03F0050E32
:10063000046EDF0EFFFFE82EFDD7042EFBD7030E5E
:10064000EDEC03F00B0E046EB80EFFFFE82EFDD7A5
:10065000042EFBD7030EEDEC03F0020EEDEC03F0DD
:10066000020EEDEC03F0080EEDEC03F0000EEDECE5
:1006700003F00C0EEDEC03F0000EEDEC03F0060EB3
:10068000EDEC03F01200FFFFFFFF000E0A6E000EFC
:10069000096E12D0FFFF09500524076E0A5006208C
:1006A000086E07C0F6FF08C0F7FF0800FFFFF5500F
:1006B000BCEC03F0094A0A2AFFFF09500524076E23
:1006C0000A500620086E07C0F6FF08C0F7FF0800B2
:1006D000FFFFF5500009D8B41200FFFFDBD7FFFF82
:1006E000FFFF056E0504D8A410D004507F0F086EDC
:1006F00008380F0B066E08500F0B076E0650EDEC16
:1007000003F00750EDEC03F014D0FFFF020E0518C4
:10071000D8A40FD00450BF0F086E08380F0B066E18
:1007200008500F0B076E0650EDEC03F00750EDEC90
:1007300003F0FFFF1200FFFFFFFF016E01A002D0D8
:10074000838802D0FFFF8398FFFF01A202D0838A33
:1007500002D0FFFF839AFFFF01A402D0838C02D056
:10076000FFFF839CFFFF01A602D0838E02D0FFFF14
:10077000839EFFFF1200FFFFFFFF046E04500F0B6C
:10078000026E0450F00B036E838203380F0B9CEC57
:1007900003F083800A0EFFFFE82EFDD783900250FE
:1007A0009CEC03F083800A0EFFFFE82EFDD78390B8
:1007B0001200FFFFFFFF000E956E07EC03F0040E22
:1007C000046E020E70EC03F0010E056E060E066E4E
:1007D00044EC03F0030001EF00F0FFFF036E83928F
:1007E00003509CEC03F08380040E026EE50EFFFFC5
:1007F000E82EFDD7022EFBD700D083901200FFFF1A
:10080000000EF86E060EF76E0001DAEF03F0FFFF40
:020000040020DA
:08000000FFFFFFFFFFFFFFFF00
:020000040030CA
:0E000000FF270F0FFF0181FF0FC00FE00F4021
:00000001FF
